:020000040800F2
:1000000000280020690C0008A10B0008AD0B0008B7
:10001000B30B0008B90B0008BF0B0008000000007C
:10002000000000000000000000000000C50B0008F8
:10003000D10B000800000000DD0B0008E90B0008F0
:10004000B10C0008B10C0008B10C0008B10C00089C
:10005000B10C0008B10C0008F50B0008B10C000849
:10006000B10C0008B10C0008B10C0008B10C00087C
:10007000B10C0008B10C0008B10C0008B10C00086C
:10008000B10C0008B10C0008B10C0008B10C00085C
:10009000B10C0008B10C0008B10C0008B10C00084C
:1000A000B10C0008B10C0008B10C0008B10C00083C
:1000B000B10C0008B10C000800000000B10C0008F1
:1000C000B10C00080000000000000000B10C0008A6
:1000D00000000000B10C0008B10C00080000000096
:1000E000B10C0008B10C0008B10C000800000000C1
:1000F0000000000000000000000000000000000000
:0C01000000000000000000005FF808F1A3
:10010C0010B5054C237833B9044B13B10448AFF345
:10011C0000800123237010BD70000020000000003F
:10012C003430000808B5034B1BB103490348AFF347
:10013C00008008BD0000000074000020343000086E
:10014C0080F0004002E000BF81F0004142001FBF80
:10015C005FEA410392EA030F7FEA226C7FEA236C89
:10016C006AD04FEA1262D2EB1363C1BFD21841407E
:10017C0048404140B8BF5B42192B88BF704710F014
:10018C00004F40F4000020F07F4018BF404211F0B7
:10019C00004F41F4000121F07F4118BF494292EA1F
:1001AC00030F3FD0A2F1010241FA03FC10EB0C004B
:1001BC00C3F1200301FA03F100F0004302D54942D8
:1001CC0060EB4000B0F5000F13D3B0F1807F06D385
:1001DC0040084FEA310102F10102FE2A51D2B1F17D
:1001EC00004F40EBC25008BF20F0010040EA030072
:1001FC007047490040EB0000013A28BFB0F5000FF2
:10020C00EDD2B0FA80FCACF1080CB2EB0C0200FAA7
:10021C000CF0AABF00EBC25052421843BCBFD040F6
:10022C001843704792F0000F81F4000106BF80F470
:10023C0000000132013BB5E74FEA41037FEA226C33
:10024C0018BF7FEA236C21D092EA030F04D092F0FE
:10025C00000F08BF0846704790EA010F1CBF002032
:10026C00704712F07F4F04D1400028BF40F000408F
:10027C00704712F100723CBF00F50000704700F0AF
:10028C00004343F0FE4040F4000070477FEA2262D6
:10029C0016BF08467FEA23630146420206BF5FEAA7
:1002AC00412390EA010F40F4800070474FF00003A7
:1002BC0004E000BF10F0004348BF40425FEA000C6E
:1002CC0008BF704743F0964301464FF000001CE016
:1002DC0050EA010208BF70474FF000030AE000BF6C
:1002EC0050EA010208BF704711F0004302D54042AA
:1002FC0061EB41015FEA010C02BF8446014600201C
:10030C0043F0B64308BFA3F18053A3F50003BCFA36
:10031C008CF2083AA3EBC25310DB01FA02FC6344E3
:10032C0000FA02FCC2F12002BCF1004F20FA02F2EA
:10033C0043EB020008BF20F00100704702F12002DD
:10034C0001FA02FCC2F1200250EA4C0021FA02F23E
:10035C0043EB020008BF20EADC7070474FF0FF0C43
:10036C001CEAD0521EBF1CEAD15392EA0C0F93EA3E
:10037C000C0F6FD01A4480EA010C400218BF5FEAE0
:10038C0041211ED04FF0006343EA501043EA511153
:10039C00A0FB01310CF00040B1F5000F3EBF49004D
:1003AC0041EAD3715B0040EA010062F17F02FD2A51
:1003BC001DD8B3F1004F40EBC25008BF20F0010034
:1003CC00704790F0000F0CF0004C08BF49024CEA4B
:1003DC00502040EA51207F3AC2BFD2F1FF0340EADD
:1003EC00C250704740F400004FF00003013A5DDC4E
:1003FC0012F1190FDCBF00F000407047C2F100028F
:10040C00410021FA02F1C2F1200200FA02FC5FEA7B
:10041C00310040F1000053EA4C0308BF20EADC70C5
:10042C00704792F0000F00F0004C02BF400010F437
:10043C00000F013AF9D040EA0C0093F0000F01F0E4
:10044C00004C02BF490011F4000F013BF9D041EA06
:10045C000C018FE70CEAD15392EA0C0F18BF93EA08
:10046C000C0F0AD030F0004C18BF31F0004CD8D132
:10047C0080EA010000F00040704790F0000F17BFB9
:10048C0090F0004F084691F0000F91F0004F14D0FF
:10049C0092EA0C0F01D142020FD193EA0C0F03D157
:1004AC004B0218BF084608D180EA010000F000405A
:1004BC0040F0FE4040F40000704740F0FE4040F435
:1004CC00400070474FF0FF0C1CEAD0521EBF1CEAD4
:1004DC00D15392EA0C0F93EA0C0F69D0A2EB0302F2
:1004EC0080EA010C49024FEA402037D04FF080538C
:1004FC0043EA111143EA10130CF000408B4238BF51
:10050C005B0042F17D024FF4000C8B4224BF5B1A5E
:10051C0040EA0C00B3EB510F24BFA3EB510340EAAC
:10052C005C00B3EB910F24BFA3EB910340EA9C005A
:10053C00B3EBD10F24BFA3EBD10340EADC001B01CA
:10054C0018BF5FEA1C1CE0D1FD2A3FF650AF8B426E
:10055C0040EBC25008BF20F0010070470CF0004C7B
:10056C004CEA50207F32C2BFD2F1FF0340EAC250A6
:10057C00704740F400004FF00003013A37E792F067
:10058C00000F00F0004C02BF400010F4000F013AC5
:10059C00F9D040EA0C0093F0000F01F0004C02BFC0
:1005AC00490011F4000F013BF9D041EA0C0195E729
:1005BC000CEAD15392EA0C0F08D142027FF47DAFC2
:1005CC0093EA0C0F7FF470AF084676E793EA0C0FB2
:1005DC0004D14B023FF44CAF08466EE730F0004CB0
:1005EC0018BF31F0004CCAD130F000427FF45CAF40
:1005FC0031F000437FF43CAF5FE700BF4FEA4002AD
:10060C00B2F1FE4F0FD34FF09E03B3EB12620DD934
:10061C004FEA002343F0004310F0004F23FA02F09E
:10062C0018BF404270474FF00000704712F1610F45
:10063C0001D1420205D110F0004008BF6FF000401C
:10064C0070474FF00000704780B483B000AF034692
:10065C00FB80074B1B68012B04DD064B1B68013329
:10066C00044A136000BF0C37BD4680BC704700BF06
:10067C00C0000020BC00002090B58BB000AF00F093
:10068C0013FB00F01BF900F0A7F900F067F900F07C
:10069C007DF8374B07F110040FCB07C4238064207F
:1006AC0000F064FB334800F05DFC4FF0FF31314843
:1006BC0000F032FD2F4800F035FE03461846FFF7D8
:1006CC00F5FD03463B62642000F050FB2A49386A72
:1006DC00FFF744FE034629491846FFF7F3FE03468D
:1006EC001846FFF78BFF0346254A1360214800F09C
:1006FC00E7FC0021012000F061F800237B620BE095
:10070C0007F110027B6A13441B780121184600F094
:10071C0055F87B6A01337B6207F110027B6A134444
:10072C001B78002BECD1174B1A683B1D1649184649
:10073C0002F000F800237B620AE03A1D7B6A134446
:10074C001B780121184600F039F87B6A01337B6273
:10075C003A1D7B6A13441B78002BEED1012142F227
:10076C00200000F02BF8C82000F000FB97E700BF3A
:10077C00503000088C0000200000204100F07F4524
:10078C00C0000020BC0000204C30000880B500AF39
:10079C000021382000F012F800210C2000F00EF897
:1007AC000021062000F00AF80021012000F006F8D4
:1007BC000021802000F002F800BF80BD80B584B01D
:1007CC0000AF03460A46FB711346BB71BB791A4650
:1007DC004FF40071384801F0CFF9FB7903F00103B5
:1007EC00FB73FB7B1A460221334801F0C5F9FB79F8
:1007FC005B08DBB203F00103FB73FB7B1A4604219D
:10080C002D4801F0B9F9FB799B08DBB203F0010329
:10081C00FB73FB7B1A460821274801F0ADF9FB79E5
:10082C00DB08DBB203F00103FB73FB7B1A461021E0
:10083C00214801F0A1F9FB791B09DBB203F001039C
:10084C00FB73FB7B1A4620211B4801F095F9FB79C1
:10085C005B09DBB203F00103FB73FB7B1A464021FF
:10086C00154801F089F9FB799B09DBB203F0010310
:10087C00FB73FB7B1A4680210F4801F07DF9FB7955
:10088C00DB09FB73FB7B1A464FF480710A4801F0BD
:10089C0073F901224FF48061074801F06DF90520CE
:1008AC0000F064FA00224FF48061034801F064F90F
:1008BC0000BF1037BD4680BD0008014080B594B024
:1008CC0000AF07F1280328220021184601F02AFF67
:1008DC0007F1140300221A605A609A60DA601A61F8
:1008EC003B1D00221A605A609A60DA600223BB62D8
:1008FC000123BB631023FB6300237B6407F12803F4
:10090C00184601F069F90346002B01D000F0CEF82F
:10091C000F237B610023BB610023FB6100233B623F
:10092C0000237B6207F114030021184601F0D6FB6B
:10093C000346002B01D000F0B9F802237B600023A2
:10094C00FB603B1D184601F04DFD0346002B01D00A
:10095C0000F0ACF800BF5037BD4680BD80B584B008
:10096C0000AF3B1D00221A605A609A60184B194A5E
:10097C001A60174B00229A60154B01221A73144B04
:10098C0000221A75124B4FF46022DA61104B0022D0
:10099C005A600F4B01221A610D4800F00BFA034606
:1009AC00002B01D000F082F808237B600123BB6090
:1009BC000023FB603B1D1946054800F0BFFC0346B5
:1009CC00002B01D000F072F800BF1037BD4680BD7F
:1009DC008C0000200024014080B586B000AF07F1E8
:1009EC00080300221A605A609A60DA602B4B9B69EC
:1009FC002A4A43F004039361284B9B6903F00403D8
:100A0C007B607B68254B9B69244A43F00803936108
:100A1C00224B9B6903F008033B603B68002240F2C9
:100A2C00FE711F4801F0A8F8002202211D4801F0B8
:100A3C00A3F80123BB601C4BFB6000233B6107F157
:100A4C0008031946164800F01BFF40F2FE73BB600A
:100A5C000123FB6000233B6102237B6107F1080348
:100A6C0019460F4800F00CFF0223BB600123FB600A
:100A7C0000233B6102237B6107F1080319460948F7
:100A8C0000F0FEFE00220021062000F0C2FE06202F
:100A9C0000F0DBFE00BF1837BD4680BD00100240E1
:100AAC0000080140000C01400000111080B400AFA0
:100ABC0000BFBD4680BC704780B485B000AF154BFD
:100ACC009B69144A43F001039361124B9B6903F039
:100ADC000103BB60BB680F4BDB690E4A43F08053CC
:100AEC00D3610C4BDB6903F080537B607B680A4B52
:100AFC005B68FB60FB6823F0E063FB60FB6843F022
:100B0C008063FB60044AFB68536000BF1437BD462A
:100B1C0080BC7047001002400000014080B588B0D6
:100B2C0000AF786007F1100300221A605A609A60D7
:100B3C00DA607B681B68144A934221D1134B9B6982
:100B4C00124A43F400739361104B9B6903F40073D6
:100B5C00FB60FB680D4B9B690C4A43F008039361E7
:100B6C000A4B9B6903F00803BB60BB6801233B6124
:100B7C0003237B6107F110031946054800F080FE42
:100B8C0000BF2037BD4680BD00240140001002404C
:100B9C00000C014080B400AF00BFBD4680BC704764
:100BAC0080B400AFFEE780B400AFFEE780B400AFC6
:100BBC00FEE780B400AFFEE780B400AF00BFBD46D7
:100BCC0080BC704780B400AF00BFBD4680BC70478E
:100BDC0080B400AF00BFBD4680BC704780B500AF8D
:100BEC0000F0A8F800BF80BD80B500AF012000F078
:100BFC00DBFF00BF80BD000080B584B000AF786023
:100C0C00114B1B68002B02D10F4B104A1A600E4B74
:100C1C001B68FB600C4B1A687B6813446A46934252
:100C2C0007D901F055FD03460C221A604FF0FF3333
:100C3C0006E0054B1A687B681344034A1360FB6893
:100C4C0018461037BD4680BDC4000020E0000020CF
:100C5C0080B400AF00BFBD4680BC70470C480D4946
:100C6C000D4A002302E0D458C4500433C4188C42FB
:100C7C00F9D30A4A0A4C002301E013600432A24261
:100C8C00FBD3FFF7E5FF01F029FDFFF7F5FC7047FB
:100C9C000000002070000020D430000870000020FC
:100CAC00DC000020FEE7000080B500AF084B1B689D
:100CBC00074A43F010031360032000F09FFD00204F
:100CCC0000F008F8FFF7F8FE0023184680BD00BFBF
:100CDC000020024080B582B000AF7860124B1A68D9
:100CEC00124B1B7819464FF47A73B3FBF1F3B2FB3A
:100CFC00F3F3184600F0B7FD0346002B01D0012397
:100D0C000EE07B680F2B0AD8002279684FF0FF3079
:100D1C0000F07FFD064A7B681360002300E001238E
:100D2C0018460837BD4680BD000000200800002092
:100D3C000400002080B400AF054B1B781A46054B0D
:100D4C001B681344034A136000BFBD4680BC704748
:100D5C0008000020C800002080B400AF024B1B68C4
:100D6C001846BD4680BC7047C800002080B584B0D2
:100D7C0000AF7860FFF7F0FFB8607B68FB60FB6842
:100D8C00B3F1FF3F05D00A4B1B781A46FB6813449E
:100D9C00FB6000BFFFF7E0FF0246BB68D31AFA689E
:100DAC009A42F7D800BF00BF1037BD4680BD00BFC8
:100DBC000800002080B586B000AF78600023FB757A
:100DCC0000233B610023BB600023FB607B68002B8E
:100DDC0001D10123BEE07B689B68002B7B689B6A7A
:100DEC00002B09D17B680022DA627B68002283F831
:100DFC0024207868FFF792FE786800F0F1FB034638
:100E0C00FB757B689B6A03F01003002B40F0998004
:100E1C00FB7D002B40F095807B689B6A23F4885304
:100E2C0023F0020343F002027B689A627B685A68E3
:100E3C007B68DB691A437B681B7B5B001343BA68D6
:100E4C001343BB607B689B68B3F5807F03D07B68E2
:100E5C009B68012B02D14FF4807300E000233A69A8
:100E6C0013433B617B681B7D012B19D17B681B7B7A
:100E7C00002B09D17B689B69013B5A033B691343E7
:100E8C0043F400633B610BE07B689B6A43F02002F8
:100E9C007B689A627B68DB6A43F001027B68DA62EA
:100EAC007B681B685B6823F469417B681B683A6943
:100EBC000A435A607B681B689A68284B13407A680F
:100ECC001268B9680B4393607B689B68B3F5807FAD
:100EDC0003D07B689B68012B04D17B681B69013BA9
:100EEC001B05FB607B681B68DB6A23F470017B6865
:100EFC001B68FA680A43DA627B681B689A68184BAD
:100F0C001340BA689A420BD17B680022DA627B6884
:100F1C009B6A23F0030343F001027B689A6218E09A
:100F2C007B689B6A23F0120343F010027B689A6281
:100F3C007B68DB6A43F001027B68DA620123FB7594
:100F4C0007E07B689B6A43F010027B689A6201237E
:100F5C00FB75FB7D18461837BD4680BDFDF7E1FFDC
:100F6C00FE0E1FFF80B584B000AF78600023FB73CA
:100F7C007B6893F82430012B01D1022398E07B6825
:100F8C00012283F82420786800F0D0FA0346FB7322
:100F9C00FB7B002B40F087807B689B6A23F44073BB
:100FAC0023F0010343F480727B689A627B681B68B0
:100FBC00414A934205D1414B5B6803F47023002BEB
:100FCC0015D17B689B6A23F480127B689A627B68DC
:100FDC001B685B6803F48063002B26D07B689B6ADC
:100FEC0023F4405343F480527B689A621DE07B6883
:100FFC009B6A43F480127B689A627B681B682F4A59
:10100C00934204D07B681B682B4A93420DD12B4B27
:10101C005B6803F48063002B07D07B689B6A23F426
:10102C00405343F480527B689A627B689B6A03F45A
:10103C008053002B06D07B68DB6A23F006027B68AA
:10104C00DA6202E07B680022DA627B68002283F8B5
:10105C0024207B681B686FF002021A607B681B6897
:10106C009B6803F46023B3F5602F13D17B681B6876
:10107C00114A934205D1114B5B6803F47023002B8A
:10108C0008D17B681B689A687B681B6842F4A002D5
:10109C009A600CE07B681B689A687B681B6842F45A
:1010AC0080129A6003E07B68002283F82420FB7B8B
:1010BC0018461037BD4680BD002801400024014071
:1010CC0080B584B000AF78600023FB737B6893F825
:1010DC002430012B01D102231AE07B68012283F812
:1010EC002420786800F07CFA0346FB73FB7B002B12
:1010FC0009D17B689B6A23F4885323F0010343F0E6
:10110C0001027B689A627B68002283F82420FB7BB7
:10111C0018461037BD4680BD90B587B000AF7860DB
:10112C00396000237B610023FB6000233B61FFF7E8
:10113C0013FE78617B681B689B6803F48073002B3B
:10114C000BD07B689B6A43F020027B689A627B68B9
:10115C00002283F824200123D3E07B681B685B68A2
:10116C0003F48073002B31D17B681B68DB6A03F4BA
:10117C007003002B2AD121E03B68B3F1FF3F1DD057
:10118C003B68002B07D0FFF7E7FD02467B69D31ABB
:10119C003A689A4212D27B681B681B6803F0020300
:1011AC00002B0BD17B689B6A43F004027B689A622C
:1011BC007B68002283F824200323A2E07B681B6851
:1011CC001B6803F00203002BD6D070E04F4B1C6859
:1011DC00022001F0BDF90346B4FBF3F27B681B68F7
:1011EC0019694B4B0B40002B18D17B681B68D968D5
:1011FC00484B0B40002B11D17B681B681969464B7F
:10120C000B40002B08D17B681B68D968434B0B4003
:10121C00002B01D1142320E029231EE07B681B68DE
:10122C0019693D4B0B40002B06D17B681B68D968B4
:10123C003A4B0B40002B0DD07B681B681969384B5F
:10124C000B40002B08D17B681B68D968344B0B40D2
:10125C00002B01D1542300E0FC2302FB03F33B6180
:10126C0021E03B68B3F1FF3F1AD03B68002B07D05D
:10127C00FFF772FD02467B69D31A3A689A420FD285
:10128C00FB683A699A420BD97B689B6A43F004026B
:10129C007B689A627B68002283F82420032330E069
:1012AC00FB680133FB60FB683A699A42D9D87B68CA
:1012BC001B686FF012021A607B689B6A43F4007221
:1012CC007B689A627B681B689B6803F46023B3F5A8
:1012DC00602F15D17B681B7B002B11D17B689B6A1F
:1012EC0023F480727B689A627B689B6A03F4805358
:1012FC00002B05D17B689B6A43F001027B689A62E4
:10130C00002318461C37BD4690BD00BF00000020CE
:10131C00244992242449920092244912922449008F
:10132C004992240080B483B000AF78607B681B685E
:10133C00DB6C18460C37BD4680BC704780B485B05A
:10134C0000AF786039600023FB730023BB607B68BF
:10135C0093F82430012B01D10223DCE07B680122BD
:10136C0083F824203B685B68062B1CD87B681B68C1
:10137C00596B3B685A6813469B001344053B1F226C
:10138C0002FA03F3DB4319403B6818683B685A6860
:10139C0013469B001344053B00FA03F27B681B6861
:1013AC000A435A633CE03B685B680C2B1CD87B6897
:1013BC001B68196B3B685A6813469B001344233B0C
:1013CC001F2202FA03F3DB4319403B6818683B68A1
:1013DC005A6813469B001344233B00FA03F27B68C4
:1013EC001B680A431A631BE07B681B68D96A3B685D
:1013FC005A6813469B001344413B1F2202FA03F325
:10140C00DB4319403B6818683B685A6813469B00DD
:10141C001344413B00FA03F27B681B680A43DA620F
:10142C003B681B68092B1CD97B681B68D9683B6817
:10143C001A6813465B0013441E3B072202FA03F39F
:10144C00DB4319403B6898683B681A6813465B009D
:10145C0013441E3B00FA03F27B681B680A43DA60F4
:10146C0019E07B681B6819693B681A6813465B00B6
:10147C001344072202FA03F3DB4319403B689868D4
:10148C003B681A6813465B00134400FA03F27B684E
:10149C001B680A431A613B681B68102B03D03B681E
:1014AC001B68112B32D17B681B681D4A934225D1D6
:1014BC007B681B689B6803F40003002B26D17B68B8
:1014CC001B689A687B681B6842F400029A603B6850
:1014DC001B68102B1AD1134B1B68134AA2FB032356
:1014EC009A0C13469B0013445B00BB6002E0BB6884
:1014FC00013BBB60BB68002BF9D107E07B689B6AA2
:10150C0043F020027B689A620123FB737B68002204
:10151C0083F82420FB7B18461437BD4680BC7047EB
:10152C00002401400000002083DE1B4380B584B002
:10153C0000AF78600023FB600023BB607B681B68F6
:10154C009B6803F00103012B40D07B681B689A68F1
:10155C007B681B6842F001029A601F4B1B681F4A94
:10156C00A2FB03239B0CBB6002E0BB68013BBB608E
:10157C00BB68002BF9D1FFF7EFFBF8601FE0FFF71A
:10158C00EBFB0246FB68D31A022B18D97B681B684D
:10159C009B6803F00103012B11D07B689B6A43F01D
:1015AC0010027B689A627B68DB6A43F001027B68FD
:1015BC00DA627B68002283F82420012307E07B6831
:1015CC001B689B6803F00103012BD8D1002318463C
:1015DC001037BD4680BD00BF0000002083DE1B43DA
:1015EC0080B584B000AF78600023FB607B681B681B
:1015FC009B6803F00103012B2ED17B681B689A6852
:10160C007B681B6822F001029A60FFF7A5FBF8606B
:10161C001BE0FFF7A1FB0246FB68D31A022B14D97F
:10162C007B681B689B6803F00103012B0DD17B6861
:10163C009B6A43F010027B689A627B68DB6A43F01A
:10164C0001027B68DA62012307E07B681B689B68F8
:10165C0003F00103012BDCD0002318461037BD46E4
:10166C0080BD000080B485B000AF78607B6803F06B
:10167C000703FB600C4BDB68BB60BA684FF6FF03DB
:10168C001340BB60FB681A02BB68134343F0BF6393
:10169C0043F40033BB60044ABB68D36000BF14370B
:1016AC00BD4680BC704700BF00ED00E080B400AFC9
:1016BC00044BDB681B0A03F007031846BD4680BCCD
:1016CC00704700BF00ED00E080B483B000AF03466C
:1016DC00FB7197F90730002B0BDBFB7903F01F0232
:1016EC00064997F907305B09012000FA02F241F82C
:1016FC00232000BF0C37BD4680BC704700E100E0E2
:10170C0080B483B000AF03463960FB7197F90730A2
:10171C00002B0ADB3B68DAB20C4997F9073012014F
:10172C00D2B20B4483F800230AE03B68DAB20849D2
:10173C00FB7903F00F03043B1201D2B20B441A766F
:10174C0000BF0C37BD4680BC704700BF00E100E015
:10175C0000ED00E080B489B000AFF860B9607A6049
:10176C00FB6803F00703FB61FB69C3F10703042B60
:10177C0028BF0423BB61FB690433062B02D9FB6928
:10178C00033B00E000237B614FF0FF32BB6902FAA0
:10179C0003F3DA43BB681A407B699A404FF0FF3180
:1017AC007B6901FA03F3D9437B680B40134318465A
:1017BC002437BD4680BC704780B582B000AF7860DE
:1017CC007B68013BB3F1807F01D301230FE00A4A10
:1017DC007B68013B53600F214FF0FF30FFF790FF08
:1017EC00054B00229A60044B07221A60002318460E
:1017FC000837BD4680BD00BF10E000E080B582B068
:10180C0000AF78607868FFF72DFF00BF0837BD4642
:10181C0080BD80B586B000AF0346B9607A60FB73BB
:10182C0000237B61FFF742FF78617A68B9687869B9
:10183C00FFF790FF024697F90F3011461846FFF755
:10184C005FFF00BF1837BD4680BD80B582B000AFCA
:10185C000346FB7197F907301846FFF735FF00BFB9
:10186C000837BD4680BD80B582B000AF786078681F
:10187C00FFF7A2FF034618460837BD4680BD00009F
:10188C0080B48BB000AF7860396000237B6200239A
:10189C003B6261E101227B6A02FA03F3FB613B6864
:1018AC001B68FA691340BB61BA69FB699A4240F044
:1018BC0050813B685B68974A93425ED0954A93424D
:1018CC0075D8954A934258D0934A93426FD8934A0D
:1018DC00934252D0914A934269D8914A93424CD048
:1018EC008F4A934263D88F4A934246D08D4A934293
:1018FC005DD8122B2AD8122B59D801A252F823F0FA
:10190C00871900086119000873190008B519000837
:10191C00BB190008BB190008BB190008BB1900084B
:10192C00BB190008BB190008BB190008BB1900083B
:10193C00BB190008BB190008BB190008BB1900082B
:10194C00BB190008691900087D190008764A9342F2
:10195C0013D02CE03B68DB683B6229E03B68DB681A
:10196C0004333B6224E03B68DB6808333B621FE0D6
:10197C003B68DB680C333B621AE03B689B68002BCE
:10198C0002D104233B6213E03B689B68012B05D119
:10199C0008233B627B68FA691A6109E008233B6201
:1019AC007B68FA695A6103E000233B6200E000BFE8
:1019BC00BB69FF2B01D87B6801E07B6804337B613A
:1019CC00BB69FF2B02D87B6A9B0002E07B6A083B59
:1019DC009B003B617B691A680F213B6901FA03F399
:1019EC00DB431A40396A3B6901FA03F31A437B69FA
:1019FC001A603B685B6803F08053002B00F0A980F1
:101A0C004A4B9B69494A43F001039361474B9B69DD
:101A1C0003F00103BB60BB68454A7B6A9B08023339
:101A2C0052F82330FB607B6A03F003039B000F2208
:101A3C0002FA03F3DB43FA681340FB607B683D4A10
:101A4C0093420DD07B683C4A934207D07B683B4A5B
:101A5C00934201D1022304E0032302E0012300E0BE
:101A6C0000237A6A02F0030292009340FA6813434F
:101A7C00FB602F497B6A9B080233FA6841F82320EC
:101A8C003B685B6803F48033002B06D02C4B1A6840
:101A9C002B49BB6913430B6006E0294B1A68BB69E1
:101AAC00DB43274913400B603B685B6803F400334E
:101ABC00002B06D0224B5A682149BB6913434B605B
:101ACC0006E01F4B5A68BB69DB431D4913404B6052
:101ADC003B685B6803F48013002B06D0184B9A68A4
:101AEC001749BB6913438B6006E0154B9A68BB69B9
:101AFC00DB43134913408B603B685B6803F40013B2
:101B0C00002B1FD00E4BDA680D49BB691343CB6019
:101B1C001FE000BF00003210000031100000221046
:101B2C0000002110000012100000111000100240E3
:101B3C000000014000080140000C01400010014071
:101B4C00000401400B4BDA68BB69DB4309491340C5
:101B5C00CB607B6A01337B623B681A687B6A22FA32
:101B6C0003F3002B7FF496AE00BF00BF2C37BD46AD
:101B7C0080BC70470004014080B483B000AF786033
:101B8C000B467B8013467B707B78002B03D07A88C6
:101B9C007B681A6103E07B881A047B681A6100BFBA
:101BAC000C37BD4680BC704780B582B000AF034691
:101BBC00FB80084B5A69FB881340002B06D0054A62
:101BCC00FB885361FB881846FEF73EFD00BF0837C3
:101BDC00BD4680BD0004014080B586B000AF786082
:101BEC007B68002B01D1012372E27B681B6803F038
:101BFC000103002B00F08780924B5B6803F00C0311
:101C0C00042B0CD08F4B5B6803F00C03082B12D108
:101C1C008C4B5B6803F48033B3F5803F0BD1894B5D
:101C2C001B6803F40033002B6CD07B685B68002BC3
:101C3C0068D101234CE27B685B68B3F5803F06D129
:101C4C00804B1B687F4A43F4803313602EE07B6823
:101C5C005B68002B0CD17B4B1B687A4A23F48033D6
:101C6C001360784B1B68774A23F4802313601DE0C4
:101C7C007B685B68B3F5A02F0CD1724B1B68714A63
:101C8C0043F4802313606F4B1B686E4A43F480331C
:101C9C0013600BE06B4B1B686A4A23F480331360B0
:101CAC00684B1B68674A23F4802313607B685B686E
:101CBC00002B13D0FFF750F8386108E0FFF74CF811
:101CCC0002463B69D31A642B01D9032300E25D4B16
:101CDC001B6803F40033002BF0D014E0FFF73CF842
:101CEC00386108E0FFF738F802463B69D31A642BD9
:101CFC0001D90323ECE1534B1B6803F40033002B95
:101D0C00F0D100E000BF7B681B6803F00203002BDE
:101D1C0063D04C4B5B6803F00C03002B0BD0494B8E
:101D2C005B6803F00C03082B1CD1464B5B6803F477
:101D3C008033002B16D1434B1B6803F00203002B9E
:101D4C0005D07B681B69012B01D00123C0E13D4B01
:101D5C001B6823F0F8027B685B69DB00394913438D
:101D6C000B603AE07B681B69002B20D0364B0122BC
:101D7C001A60FEF7F1FF386108E0FEF7EDFF02464E
:101D8C003B69D31A022B01D90323A1E12D4B1B680C
:101D9C0003F00203002BF0D02A4B1B6823F0F8024F
:101DAC007B685B69DB00274913430B6015E0264B0E
:101DBC0000221A60FEF7D0FF386108E0FEF7CCFF76
:101DCC0002463B69D31A022B01D9032380E11D4B38
:101DDC001B6803F00203002BF0D17B681B6803F037
:101DEC000803002B3AD07B689B69002B19D0174B4A
:101DFC0001221A60FEF7B0FF386108E0FEF7ACFF75
:101E0C0002463B69D31A022B01D9032360E10D4B27
:101E1C005B6A03F00203002BF0D0012000F0C4FA3F
:101E2C001CE00A4B00221A60FEF796FF38610FE0A7
:101E3C00FEF792FF02463B69D31A022B08D9032303
:101E4C0046E100BF001002400000424280044242C2
:101E5C00924B5B6A03F00203002BE9D17B681B6891
:101E6C0003F00403002B00F0A6800023FB758B4BC2
:101E7C00DB6903F08053002B0DD1884BDB69874A5B
:101E8C0043F08053D361854BDB6903F08053BB6017
:101E9C00BB680123FB75824B1B6803F48073002B1A
:101EAC0018D17F4B1B687E4A43F480731360FEF796
:101EBC0053FF386108E0FEF74FFF02463B69D31A27
:101ECC00642B01D9032303E1754B1B6803F4807366
:101EDC00002BF0D07B68DB68012B06D16F4B1B6AA3
:101EEC006E4A43F0010313622DE07B68DB68002B24
:101EFC000CD16A4B1B6A694A23F001031362674BCE
:101F0C001B6A664A23F0040313621CE07B68DB68DF
:101F1C00052B0CD1614B1B6A604A43F0040313621E
:101F2C005E4B1B6A5D4A43F0010313620BE05B4B93
:101F3C001B6A5A4A23F001031362584B1B6A574A17
:101F4C0023F0040313627B68DB68002B15D0FEF7CB
:101F5C0003FF38610AE0FEF7FFFE02463B69D31A25
:101F6C0041F28832934201D90323B1E04B4B1B6AF7
:101F7C0003F00203002BEED014E0FEF7EDFE386107
:101F8C000AE0FEF7E9FE02463B69D31A41F28832B9
:101F9C00934201D903239BE0404B1B6A03F00203DD
:101FAC00002BEED1FB7D012B05D13C4BDB693B4A71
:101FBC0023F08053D3617B68DB69002B00F08780B2
:101FCC00364B5B6803F00C03082B61D07B68DB6934
:101FDC00022B46D1334B00221A60FEF7BDFE38614E
:101FEC0008E0FEF7B9FE02463B69D31A022B01D971
:101FFC0003236DE0294B1B6803F00073002BF0D119
:10200C007B681B6AB3F5803F08D1244B5B6823F4D3
:10201C0000327B689B68214913434B601F4B5B6804
:10202C0023F474127B68196A7B685B6A0B431B4947
:10203C0013434B601B4B01221A60FEF78DFE386177
:10204C0008E0FEF789FE02463B69D31A022B01D940
:10205C0003233DE0114B1B6803F00073002BF0D001
:10206C0035E0104B00221A60FEF776FE386108E06E
:10207C00FEF772FE02463B69D31A022B01D90323E9
:10208C0026E0064B1B6803F00073002BF0D11EE01A
:10209C007B68DB69012B07D1012319E0001002409A
:1020AC0000700040600042420B4B5B68FB60FB68B9
:1020BC0003F480327B681B6A9A4206D1FB6803F4F6
:1020CC0070127B685B6A9A4201D0012300E0002306
:1020DC0018461837BD4680BD0010024080B584B04C
:1020EC0000AF786039607B68002B01D10123D0E010
:1020FC006A4B1B6803F007033A689A4210D9674B86
:10210C001B6823F0070265493B6813430B60634B64
:10211C001B6803F007033A689A4201D00123B8E028
:10212C007B681B6803F00203002B20D07B681B68C4
:10213C0003F00403002B05D0594B5B68584A43F459
:10214C00E06353607B681B6803F00803002B05D029
:10215C00534B5B68524A43F460535360504B5B687B
:10216C0023F0F0027B689B684D4913434B607B68FE
:10217C001B6803F00103002B40D07B685B68012BCC
:10218C0007D1474B1B6803F40033002B15D10123F7
:10219C007FE07B685B68022B07D1414B1B6803F027
:1021AC000073002B09D1012373E03D4B1B6803F036
:1021BC000203002B01D101236BE0394B5B6823F048
:1021CC0003027B685B68364913434B60FEF7C4FD22
:1021DC00F8600AE0FEF7C0FD0246FB68D31A41F234
:1021EC008832934201D9032353E02D4B5B6803F0F3
:1021FC000C027B685B689B009A42EBD1274B1B68F7
:10220C0003F007033A689A4210D2244B1B6823F060
:10221C00070222493B6813430B60204B1B6803F0F9
:10222C0007033A689A4201D0012332E07B681B68AD
:10223C0003F00403002B08D0194B5B6823F4E06215
:10224C007B68DB68164913434B607B681B6803F0A3
:10225C000803002B09D0124B5B6823F460527B6897
:10226C001B69DB000E4913434B6000F021F802465A
:10227C000B4B5B681B0903F00F030A49CB5C22FA7A
:10228C0003F3094A1360094B1B681846FEF722FD3D
:10229C00002318461037BD4680BD00BF0020024009
:1022AC0000100240803000080000002004000020D4
:1022BC0090B48AB000AF294B3C1D0FCB84E80F00C3
:1022CC0040F201233B800023FB610023BB61002310
:1022DC007B6200237B6100233B62214B5B68FB61CB
:1022EC00FB6903F00C03042B02D0082B03D02BE06A
:1022FC001C4B3B622BE0FB699B0C03F00F03283358
:10230C003B4413F8243C7B61FB6903F48033002BC2
:10231C0012D0134B5B685B0C03F0010328333B4476
:10232C0013F8283CBB617B690E4A03FB02F2BB69C4
:10233C00B2FBF3F37B6204E07B690B4A02FB03F311
:10234C007B627B6A3B6202E0064B3B6200BF3B6AEE
:10235C0018462837BD4690BC704700BF6030000857
:10236C000010024000127A0000093D0080B400AF5A
:10237C00024B1B681846BD4680BC7047000000200D
:10238C0080B500AFFFF7F2FF0246054B5B68DB0A36
:10239C0003F007030349CB5C22FA03F3184680BD14
:1023AC00001002409030000880B485B000AF786017
:1023BC000A4B1B680A4AA2FB03235B0A7A6802FBDE
:1023CC0003F3FB6000BFFB685A1EFA60002BF9D1C7
:1023DC0000BF00BF1437BD4680BC70470000002012
:1023EC00D34D621080B586B000AF786000233B619E
:1023FC000023FB607B681B6803F00103002B7DD07E
:10240C000023FB754F4BDB6903F08053002B0DD180
:10241C004C4BDB694B4A43F08053D361494BDB692E
:10242C0003F08053BB60BB680123FB75464B1B68F4
:10243C0003F48073002B18D1434B1B68424A43F4BE
:10244C0080731360FEF788FC386108E0FEF784FCAB
:10245C0002463B69D31A642B01D903236DE03A4B36
:10246C001B6803F48073002BF0D0364B1B6A03F40B
:10247C004073FB60FB68002B2ED07B685B6803F419
:10248C004073FA689A4227D02E4B1B6A23F4407390
:10249C00FB602E4B01221A602C4B00221A60294A39
:1024AC00FB681362FB6803F00103002B14D0FEF7EA
:1024BC0053FC38610AE0FEF74FFC02463B69D31A25
:1024CC0041F28832934201D9032336E01D4B1B6A3B
:1024DC0003F00203002BEED01A4B1B6A23F440725C
:1024EC007B685B68174913430B62FB7D012B05D19D
:1024FC00144BDB69134A23F08053D3617B681B6850
:10250C0003F00203002B08D00E4B5B6823F440420F
:10251C007B689B680B4913434B607B681B6803F01B
:10252C001003002B08D0074B5B6823F480027B68F8
:10253C00DB68044913434B60002318461837BD462B
:10254C0080BD00BF001002400070004040044242B9
:10255C0090B58DB000AF7860584B07F10C040FCBE1
:10256C0084E80F0040F201233B8100237B620023AF
:10257C00FB6200233B620023FB610023BB627B6890
:10258C00102B0AD07B68102B00F28E807B68012BFD
:10259C0049D07B68022B79D086E0494B5B68FB61A4
:1025AC00474B1B6803F08073002B7FD0FB699B0C9F
:1025BC0003F00F0330333B4413F8243C3B62FB69BC
:1025CC0003F48033002B17D03D4B5B685B0C03F09E
:1025DC00010330333B4413F8283C7B62FB6903F462
:1025EC008033002B0DD0374A7B6AB2FBF3F23B6A87
:1025FC0002FB03F3FB6204E03B6A334A02FB03F386
:10260C00FB622F4B5B6803F48003B3F5800F02D1A0
:10261C00FB6ABB624AE0FB6A5B002C4AA2FB032309
:10262C005B08BB6242E0264B1B6AFB61FB6903F44F
:10263C004073B3F5807F08D1FB6903F00203002BD4
:10264C0003D04FF40043BB621FE0FB6903F44073FB
:10265C00B3F5007F09D11A4B5B6A03F00203002B20
:10266C0003D049F64043BB620FE0FB6903F44073AF
:10267C00B3F5407F1CD1124B1B6803F40033002BC5
:10268C0016D04FF22443BB6212E011E0FFF778FE44
:10269C0002460B4B5B689B0B03F0030301335B009F
:1026AC00B2FBF3F3BB6204E000BF02E000BF00E04A
:1026BC0000BFBB6A18463437BD4690BD7030000869
:1026CC000010024000127A0000093D00ABAAAAAA31
:1026DC00014B1868704700BF0C00002070B5002635
:1026EC000C4D0D4C641BA410A64209D100F09CFCAF
:1026FC0000260A4D0A4C641BA410A64205D170BDDD
:10270C0055F8043B98470136EEE755F8043B9847DB
:10271C000136F2E7CC300008CC300008CC30000891
:10272C00D030000803460244934200D1704703F8AE
:10273C00011BF9E70EB46FF0004100B59CB01DAB66
:10274C0002900690079104910848094953F8042B0C
:10275C000591006802A9019300F068F80022029B21
:10276C001A701CB05DF804EB03B070470C0000202D
:10277C000802FFFF2DE9F0478E6882469E420C4608
:10278C0090461F4638D88A8912F4906F32D025684B
:10279C0009690133A5EB010965694B4405EB450556
:1027AC0005EBD5756D109D4238BF1D46530531D5CF
:1027BC00294600F06FFB064650B90C234FF0FF3052
:1027CC00CAF80030A38943F04003A381BDE8F08729
:1027DC004A46216900F0CEFAA38923F4906343F0B2
:1027EC008003A38126614E4426603E466561A5EBBD
:1027FC000905A560BE4200D93E46324641462068D6
:10280C0000F0C6FAA36800209B1BA3602368334426
:10281C002360DBE72A4600F0B1FB06460028E1D135
:10282C005046216900F0CEFAC7E700002DE9F04FC1
:10283C0098468B8907461B060D4614469DB00ED54F
:10284C000B6963B9402100F025FB2860286120B991
:10285C000C233B604FF0FF30D1E040236B61002331
:10286C00099320238DF8293030234FF00109CDF83E
:10287C000C80DFF8A4818DF82A3023469A4613F891
:10288C00012B0AB1252AF9D1BAEB040B0BD05B460C
:10289C00224629463846FFF76DFF013000F0AA802A
:1028AC00099A5A4409929AF80030002B00F0A28041
:1028BC0000234FF0FF32CDE905230AF1010A0493FE
:1028CC0007938DF853301A935446052214F8011BC4
:1028DC00514800F041FA049AD8B9D00644BF2023DD
:1028EC008DF85330110744BF2B238DF853309AF8D1
:1028FC0000302A2B15D0544600204FF00A0C079AB2
:10290C00214611F8013B303B092B4ED9B0B107924F
:10291C0014E0A0EB080309FA03F31343A246049353
:10292C00D2E7039B191D1B680391002BBBBF5B42B5
:10293C0042F0020207930793B8BF049223782E2B20
:10294C000CD163782A2B35D1039B02341A1D1B68DA
:10295C000392002BB8BF4FF0FF330593DFF8BCA0F8
:10296C0003225046217800F0F7F940B14023A0EB48
:10297C000A0003FA00F0049B01340343049314F897
:10298C00011B062226488DF8281000F0E5F90028D6
:10299C0038D0244B1BBB039B073323F007030833AE
:1029AC000393099B3344099367E70C4601200CFB06
:1029BC000232A5E700234FF00A0C194601340593A7
:1029CC00204610F8012B303A092A03D9002BC5D028
:1029DC000591C3E7044601230CFB0121F0E703AB8F
:1029EC0000932A463846104B04A9AFF30080421CD2
:1029FC000646D6D1AB895B063FF52CAF09981DB0C6
:102A0C00BDE8F08F03AB00932A463846064B04A969
:102A1C0000F07CF8EBE700BF983000089E3000080F
:102A2C00A230000800000000812700082DE9F047C3
:102A3C00164699468A680B6907469342B8BF1346F7
:102A4C00336091F843200C46DDF820800AB1013345
:102A5C0033602368990642BF3368023333602568BC
:102A6C0015F0060506D104F1190AE36832689B1AC1
:102A7C00AB4228DC94F84320131E226818BF0123B4
:102A8C0092062DD44946384604F14302C047013022
:102A9C0020D02368E56803F00603042B18BF00253B
:102AAC0032684FF00006A36808BFAD1A226908BF50
:102ABC0025EAE5759342C4BF9B1AED181A34B5424A
:102ACC001AD1002008E00123524649463846C04737
:102ADC00013003D14FF0FF30BDE8F0870135C4E77A
:102AEC003020E11881F843005A1C94F84510224418
:102AFC00023382F84310C5E7012322464946384683
:102B0C00C0470130E6D00136D9E700002DE9FF4778
:102B1C000F7E9146782F80460C469A460C9D01F10B
:102B2C00430207D8622F0AD8002F00F0D980582F03
:102B3C0000F0A48004F1420584F842703AE0A7F159
:102B4C006303152BF6D801A151F823F0B12B000823
:102B5C00C52B0008412B0008412B0008412B000815
:102B6C00412B0008C52B0008412B0008412B000805
:102B7C00412B0008412B0008D32C0008F52B000832
:102B8C00B52C0008412B0008412B0008F52C00083F
:102B9C00412B0008F52B0008412B0008412B0008A5
:102BAC00BD2C00082B681A1D1B682A6004F1420515
:102BBC0084F842300123A4E020682968060601F15C
:102BCC0004030AD50E682B60002E03DA2D237642FF
:102BDC0084F843300A235E4819E00E6810F0400F69
:102BEC002B6018BF36B2EFE72B682068191D2960DF
:102BFC00010601D51E6802E04606FBD51E886F2F24
:102C0C000CBF08230A235248002184F8431065683E
:102C1C00002DA8BF2168A560A4BF21F0040121608C
:102C2C000EB9002D4DD01546B6FBF3F103FB116721
:102C3C00C75D05F8017D3746BB420E46F4D9082B1B
:102C4C000BD12368DE0708D5236961689942DEBF82
:102C5C00302305F8013C05F1FF35521B22614B4630
:102C6C0021464046CDF800A003AAFFF7DFFE013055
:102C7C004CD14FF0FF3004B0BDE8F087344881F8F8
:102C8C0045702968236851F8046B29601D0614D51A
:102C9C00DF0744BF43F0200323601EB9236823F0F1
:102CAC00200323601023AFE7236843F02003236045
:102CBC007823284884F84530E3E7590648BFB6B274
:102CCC00E6E71546BBE72B682668181D6169286086
:102CDC0035061B6801D5196002E07006FBD519801A
:102CEC00002315462361BAE72B6800211A1D2A60C0
:102CFC001D686268284600F02FF808B1401B606020
:102D0C0063682361002384F84330A8E72A464946C8
:102D1C0040462369D0470130ABD023689B0713D4BE
:102D2C00E068039B9842B8BF1846A4E701233246DB
:102D3C0049464046D04701309BD00135E3680399A2
:102D4C005B1AAB42F2DCEBE7002504F11906F5E760
:102D5C00A9300008BA300008034610B5C9B20244C5
:102D6C009342184601D1002003E0047801338C42D1
:102D7C00F6D110BD0A44914200F1FF3300D17047E7
:102D8C0010B511F8014B914203F8014FF9D110BD68
:102D9C00884210B501EB020402D98442234607D8BD
:102DAC00431EA14208D011F8012B03F8012FF8E7BC
:102DBC00014602448A4200D110BD13F8014D02F8BD
:102DCC00014DF7E738B50546002940D051F8043CD1
:102DDC000C1F002BB8BFE41800F010F91C4A136844
:102DEC0033B9636014602846BDE8384000F00CB974
:102DFC00A34208D9206821188B4201BF19685B686F
:102E0C0009182160EDE71A465B680BB1A342FAD9A9
:102E1C0011685018A0420BD120680144501883420D
:102E2C001160E0D118685B68014411605360DAE707
:102E3C0002D90C232B60D6E7206821188B4201BFE6
:102E4C0019685B680918216063605460CBE738BD72
:102E5C00CC00002070B50E4E0C463168054611B9F9
:102E6C0000F0BCF830602146284600F0B7F8431C4F
:102E7C000AD0C41C24F00304A04207D0211A28460F
:102E8C0000F0ACF8013001D14FF0FF34204670BD9A
:102E9C00D00000202DE9F041CD1C25F003050835AC
:102EAC000C2D38BF0C25002D074601DBA94205D996
:102EBC000C2300263B603046BDE8F0812E4E00F01E
:102ECC009DF833681C4634BB29463846FFF7C2FFD1
:102EDC00431C04464DD134682646002E40D123684D
:102EEC003146384604EB030800F078F880453AD1B7
:102EFC00216803356D1A25F0030508350C2D38BFF4
:102F0C000C2538462946FFF7A5FF01302BD0236846
:102F1C002B4423600EE02268521B1ED40B2A16D9B8
:102F2C006119A342256018BF5960636808BF3160FE
:102F3C0062514B60384604F10B0600F065F826F040
:102F4C000706231DF21AB6D09B1BA350B3E7626889
:102F5C00A3420CBF32605A60ECE723466468B2E7C8
:102F6C0034467668B9E70C2338463B6000F04CF8E1
:102F7C00A1E72560DEE700BFCC0000202DE9F04181
:102F8C00804614460E4621B91146BDE8F041FFF7C4
:102F9C0081BF2AB9FFF716FF25462846BDE8F08108
:102FAC0000F038F88442074602D8B4EB500F12D820
:102FBC0021464046FFF76EFF05460028EDD0BC4287
:102FCC002246314628BF3A46FFF7D4FE31464046EA
:102FDC00FFF7F8FEE1E73546DFE7000038B50023E0
:102FEC00054D044608462B60FDF706FE431C02D136
:102FFC002B6803B1236038BDD4000020014800F0D9
:10300C0011B800BFD8000020014800F00CB800BF78
:10301C00D800002051F8043C181F002BBCBF0B58E3
:10302C00C018704770477047F8B500BFF8BC08BCB3
:10303C009E467047F8B500BFF8BC08BC9E4670476A
:10304C002564000042726F6A206B6F72616B613A8B
:10305C002000000002030405060708090A0B0C0DEA
:10306C000E0F101002030405060708090A0B0C0DBD
:10307C000E0F1010000000000000000001020304FD
:10308C00060708090000000001020304232D302B61
:10309C002000686C4C00656667454647003031324D
:1030AC0033343536373839414243444546003031A4
:1030BC003233343536373839616263646566000003
:0430CC0031010008C6
:0430D0000D010008E6
:1030D4000024F40010000000010000001000002093
:1030E40000000000000000000000000000000000DC
:1030F40000000000000000000000000000000000CC
:1031040000000000000000000000000000000000BB
:1031140000000000000000000000000000000000AB
:10312400000000000000000000000000000000009B
:10313400000000000000000000000000000000008B
:0400000508000C697A
:00000001FF
